{
  "_format": "hh-sol-artifact-1",
  "contractName": "EDAVAccess",
  "sourceName": "contracts/EDAVAccess.sol",
  "abi": [
    {
      "anonymous": false,
      "inputs": [
        {
          "indexed": true,
          "internalType": "uint256",
          "name": "requestId",
          "type": "uint256"
        },
        {
          "indexed": true,
          "internalType": "address",
          "name": "guardian",
          "type": "address"
        }
      ],
      "name": "AccessApproved",
      "type": "event"
    },
    {
      "anonymous": false,
      "inputs": [
        {
          "indexed": true,
          "internalType": "uint256",
          "name": "requestId",
          "type": "uint256"
        },
        {
          "indexed": false,
          "internalType": "string",
          "name": "ipfsHash",
          "type": "string"
        }
      ],
      "name": "AccessGranted",
      "type": "event"
    },
    {
      "anonymous": false,
      "inputs": [
        {
          "indexed": true,
          "internalType": "uint256",
          "name": "requestId",
          "type": "uint256"
        },
        {
          "indexed": true,
          "internalType": "address",
          "name": "patient",
          "type": "address"
        },
        {
          "indexed": true,
          "internalType": "address",
          "name": "hospital",
          "type": "address"
        }
      ],
      "name": "AccessRequested",
      "type": "event"
    },
    {
      "anonymous": false,
      "inputs": [
        {
          "indexed": true,
          "internalType": "address",
          "name": "patient",
          "type": "address"
        },
        {
          "indexed": false,
          "internalType": "string",
          "name": "ipfsHash",
          "type": "string"
        }
      ],
      "name": "PatientRegistered",
      "type": "event"
    },
    {
      "inputs": [],
      "name": "REQUIRED_APPROVALS",
      "outputs": [
        {
          "internalType": "uint256",
          "name": "",
          "type": "uint256"
        }
      ],
      "stateMutability": "view",
      "type": "function"
    },
    {
      "inputs": [
        {
          "internalType": "uint256",
          "name": "",
          "type": "uint256"
        }
      ],
      "name": "accessRequests",
      "outputs": [
        {
          "internalType": "uint256",
          "name": "id",
          "type": "uint256"
        },
        {
          "internalType": "address",
          "name": "patient",
          "type": "address"
        },
        {
          "internalType": "address",
          "name": "hospital",
          "type": "address"
        },
        {
          "internalType": "string",
          "name": "ipfsHash",
          "type": "string"
        },
        {
          "internalType": "uint256",
          "name": "timestamp",
          "type": "uint256"
        },
        {
          "internalType": "uint256",
          "name": "approvals",
          "type": "uint256"
        },
        {
          "internalType": "bool",
          "name": "executed",
          "type": "bool"
        }
      ],
      "stateMutability": "view",
      "type": "function"
    },
    {
      "inputs": [
        {
          "internalType": "uint256",
          "name": "_requestId",
          "type": "uint256"
        }
      ],
      "name": "approveAccess",
      "outputs": [],
      "stateMutability": "nonpayable",
      "type": "function"
    },
    {
      "inputs": [
        {
          "internalType": "address",
          "name": "_hospital",
          "type": "address"
        }
      ],
      "name": "authorizeHospital",
      "outputs": [],
      "stateMutability": "nonpayable",
      "type": "function"
    },
    {
      "inputs": [
        {
          "internalType": "address",
          "name": "",
          "type": "address"
        }
      ],
      "name": "authorizedHospitals",
      "outputs": [
        {
          "internalType": "bool",
          "name": "",
          "type": "bool"
        }
      ],
      "stateMutability": "view",
      "type": "function"
    },
    {
      "inputs": [
        {
          "internalType": "address",
          "name": "_patient",
          "type": "address"
        }
      ],
      "name": "getPatientGuardians",
      "outputs": [
        {
          "internalType": "address[]",
          "name": "",
          "type": "address[]"
        }
      ],
      "stateMutability": "view",
      "type": "function"
    },
    {
      "inputs": [
        {
          "internalType": "address",
          "name": "",
          "type": "address"
        }
      ],
      "name": "patients",
      "outputs": [
        {
          "internalType": "address",
          "name": "wallet",
          "type": "address"
        },
        {
          "internalType": "string",
          "name": "ipfsHash",
          "type": "string"
        },
        {
          "internalType": "bool",
          "name": "isActive",
          "type": "bool"
        }
      ],
      "stateMutability": "view",
      "type": "function"
    },
    {
      "inputs": [
        {
          "internalType": "address",
          "name": "_patient",
          "type": "address"
        },
        {
          "internalType": "string",
          "name": "_ipfsHash",
          "type": "string"
        },
        {
          "internalType": "address[]",
          "name": "_guardians",
          "type": "address[]"
        }
      ],
      "name": "registerPatient",
      "outputs": [],
      "stateMutability": "nonpayable",
      "type": "function"
    },
    {
      "inputs": [
        {
          "internalType": "address",
          "name": "_patient",
          "type": "address"
        }
      ],
      "name": "requestAccess",
      "outputs": [
        {
          "internalType": "uint256",
          "name": "",
          "type": "uint256"
        }
      ],
      "stateMutability": "nonpayable",
      "type": "function"
    },
    {
      "inputs": [],
      "name": "requestCounter",
      "outputs": [
        {
          "internalType": "uint256",
          "name": "",
          "type": "uint256"
        }
      ],
      "stateMutability": "view",
      "type": "function"
    }
  ],
  "bytecode": "0x608060405234801561001057600080fd5b50611d12806100206000396000f3fe608060405234801561001057600080fd5b506004361061009e5760003560e01c80636df4b239116100665780636df4b2391461016f5780637d9aacdb1461018b5780638ca91a9a146101bb578063973a814e146101f1578063eefadf251461020f5761009e565b8063022cb271146100a35780630869cfbc146100d35780631f46491314610105578063568497bb14610135578063599c553314610151575b600080fd5b6100bd60048036038101906100b89190610ede565b61022b565b6040516100ca9190610f24565b60405180910390f35b6100ed60048036038101906100e89190610ede565b6104c6565b6040516100fc93929190610ff9565b60405180910390f35b61011f600480360381019061011a9190610ede565b6105a5565b60405161012c91906110f5565b60405180910390f35b61014f600480360381019061014a9190611143565b610674565b005b610159610a7b565b6040516101669190610f24565b60405180910390f35b61018960048036038101906101849190610ede565b610a80565b005b6101a560048036038101906101a09190610ede565b610adb565b6040516101b29190611170565b60405180910390f35b6101d560048036038101906101d09190611143565b610afb565b6040516101e8979695949392919061118b565b60405180910390f35b6101f9610c12565b6040516102069190610f24565b60405180910390f35b610229600480360381019061022491906113fe565b610c18565b005b6000600260003373ffffffffffffffffffffffffffffffffffffffff1673ffffffffffffffffffffffffffffffffffffffff16815260200190815260200160002060009054906101000a900460ff166102b9576040517f08c379a00000000000000000000000000000000000000000000000000000000081526004016102b0906114d5565b60405180910390fd5b6000808373ffffffffffffffffffffffffffffffffffffffff1673ffffffffffffffffffffffffffffffffffffffff16815260200190815260200160002060030160009054906101000a900460ff16610347576040517f08c379a000000000000000000000000000000000000000000000000000000000815260040161033e90611541565b60405180910390fd5b600060036000815461035890611590565b91905081905590506000600160008381526020019081526020016000209050818160000181905550838160010160006101000a81548173ffffffffffffffffffffffffffffffffffffffff021916908373ffffffffffffffffffffffffffffffffffffffff160217905550338160020160006101000a81548173ffffffffffffffffffffffffffffffffffffffff021916908373ffffffffffffffffffffffffffffffffffffffff1602179055506000808573ffffffffffffffffffffffffffffffffffffffff1673ffffffffffffffffffffffffffffffffffffffff168152602001908152602001600020600101816003019081610457919061180f565b504281600401819055503373ffffffffffffffffffffffffffffffffffffffff168473ffffffffffffffffffffffffffffffffffffffff16837fc0d9df9d6d8acee28356fcc24c0de4597104943515c4c0b12fb3d6b1ca74b0ee60405160405180910390a48192505050919050565b60006020528060005260406000206000915090508060000160009054906101000a900473ffffffffffffffffffffffffffffffffffffffff169080600101805461050f90611607565b80601f016020809104026020016040519081016040528092919081815260200182805461053b90611607565b80156105885780601f1061055d57610100808354040283529160200191610588565b820191906000526020600020905b81548152906001019060200180831161056b57829003601f168201915b5050505050908060030160009054906101000a900460ff16905083565b60606000808373ffffffffffffffffffffffffffffffffffffffff1673ffffffffffffffffffffffffffffffffffffffff16815260200190815260200160002060020180548060200260200160405190810160405280929190818152602001828054801561066857602002820191906000526020600020905b8160009054906101000a900473ffffffffffffffffffffffffffffffffffffffff1673ffffffffffffffffffffffffffffffffffffffff168152602001906001019080831161061e575b50505050509050919050565b600060016000838152602001908152602001600020905060008160000154036106d2576040517f08c379a00000000000000000000000000000000000000000000000000000000081526004016106c990611943565b60405180910390fd5b8060060160009054906101000a900460ff1615610724576040517f08c379a000000000000000000000000000000000000000000000000000000000815260040161071b906119af565b60405180910390fd5b8060070160003373ffffffffffffffffffffffffffffffffffffffff1673ffffffffffffffffffffffffffffffffffffffff16815260200190815260200160002060009054906101000a900460ff16156107b3576040517f08c379a00000000000000000000000000000000000000000000000000000000081526004016107aa90611a1b565b60405180910390fd5b6000808060008460010160009054906101000a900473ffffffffffffffffffffffffffffffffffffffff1673ffffffffffffffffffffffffffffffffffffffff1673ffffffffffffffffffffffffffffffffffffffff16815260200190815260200160002060020180548060200260200160405190810160405280929190818152602001828054801561089b57602002820191906000526020600020905b8160009054906101000a900473ffffffffffffffffffffffffffffffffffffffff1673ffffffffffffffffffffffffffffffffffffffff1681526020019060010190808311610851575b5050505050905060005b8151811015610917573373ffffffffffffffffffffffffffffffffffffffff168282815181106108d8576108d7611a3b565b5b602002602001015173ffffffffffffffffffffffffffffffffffffffff16036109045760019250610917565b808061090f90611590565b9150506108a5565b5081610958576040517f08c379a000000000000000000000000000000000000000000000000000000000815260040161094f90611ab6565b60405180910390fd5b60018360070160003373ffffffffffffffffffffffffffffffffffffffff1673ffffffffffffffffffffffffffffffffffffffff16815260200190815260200160002060006101000a81548160ff0219169083151502179055508260050160008154809291906109c790611590565b91905055503373ffffffffffffffffffffffffffffffffffffffff16847f348bddf88e5272c971b1f9d7f1b5202231c0a6c47c5b4bd72e317c544516709260405160405180910390a36002836005015410610a755760018360060160006101000a81548160ff021916908315150217905550837f06ef819db7d538538259dcf44099404ee02b1095fbbe9d34d7e5e37a349886ca84600301604051610a6c9190611b5a565b60405180910390a25b50505050565b600281565b6001600260008373ffffffffffffffffffffffffffffffffffffffff1673ffffffffffffffffffffffffffffffffffffffff16815260200190815260200160002060006101000a81548160ff02191690831515021790555050565b60026020528060005260406000206000915054906101000a900460ff1681565b60016020528060005260406000206000915090508060000154908060010160009054906101000a900473ffffffffffffffffffffffffffffffffffffffff16908060020160009054906101000a900473ffffffffffffffffffffffffffffffffffffffff1690806003018054610b7090611607565b80601f0160208091040260200160405190810160405280929190818152602001828054610b9c90611607565b8015610be95780601f10610bbe57610100808354040283529160200191610be9565b820191906000526020600020905b815481529060010190602001808311610bcc57829003601f168201915b5050505050908060040154908060050154908060060160009054906101000a900460ff16905087565b60035481565b600281511015610c5d576040517f08c379a0000000000000000000000000000000000000000000000000000000008152600401610c5490611bc8565b60405180910390fd5b60405180608001604052808473ffffffffffffffffffffffffffffffffffffffff168152602001838152602001828152602001600115158152506000808573ffffffffffffffffffffffffffffffffffffffff1673ffffffffffffffffffffffffffffffffffffffff16815260200190815260200160002060008201518160000160006101000a81548173ffffffffffffffffffffffffffffffffffffffff021916908373ffffffffffffffffffffffffffffffffffffffff1602179055506020820151816001019081610d319190611be8565b506040820151816002019080519060200190610d4e929190610dc5565b5060608201518160030160006101000a81548160ff0219169083151502179055509050508273ffffffffffffffffffffffffffffffffffffffff167fc85b128388b9c331a2a5485dce4cd0f3db9f7c279d327ce95d6d39d6c94644c783604051610db89190611cba565b60405180910390a2505050565b828054828255906000526020600020908101928215610e3e579160200282015b82811115610e3d5782518260006101000a81548173ffffffffffffffffffffffffffffffffffffffff021916908373ffffffffffffffffffffffffffffffffffffffff16021790555091602001919060010190610de5565b5b509050610e4b9190610e4f565b5090565b5b80821115610e68576000816000905550600101610e50565b5090565b6000604051905090565b600080fd5b600080fd5b600073ffffffffffffffffffffffffffffffffffffffff82169050919050565b6000610eab82610e80565b9050919050565b610ebb81610ea0565b8114610ec657600080fd5b50565b600081359050610ed881610eb2565b92915050565b600060208284031215610ef457610ef3610e76565b5b6000610f0284828501610ec9565b91505092915050565b6000819050919050565b610f1e81610f0b565b82525050565b6000602082019050610f396000830184610f15565b92915050565b610f4881610ea0565b82525050565b600081519050919050565b600082825260208201905092915050565b60005b83811015610f88578082015181840152602081019050610f6d565b60008484015250505050565b6000601f19601f8301169050919050565b6000610fb082610f4e565b610fba8185610f59565b9350610fca818560208601610f6a565b610fd381610f94565b840191505092915050565b60008115159050919050565b610ff381610fde565b82525050565b600060608201905061100e6000830186610f3f565b81810360208301526110208185610fa5565b905061102f6040830184610fea565b949350505050565b600081519050919050565b600082825260208201905092915050565b6000819050602082019050919050565b61106c81610ea0565b82525050565b600061107e8383611063565b60208301905092915050565b6000602082019050919050565b60006110a282611037565b6110ac8185611042565b93506110b783611053565b8060005b838110156110e85781516110cf8882611072565b97506110da8361108a565b9250506001810190506110bb565b5085935050505092915050565b6000602082019050818103600083015261110f8184611097565b905092915050565b61112081610f0b565b811461112b57600080fd5b50565b60008135905061113d81611117565b92915050565b60006020828403121561115957611158610e76565b5b60006111678482850161112e565b91505092915050565b60006020820190506111856000830184610fea565b92915050565b600060e0820190506111a0600083018a610f15565b6111ad6020830189610f3f565b6111ba6040830188610f3f565b81810360608301526111cc8187610fa5565b90506111db6080830186610f15565b6111e860a0830185610f15565b6111f560c0830184610fea565b98975050505050505050565b600080fd5b600080fd5b7f4e487b7100000000000000000000000000000000000000000000000000000000600052604160045260246000fd5b61124382610f94565b810181811067ffffffffffffffff821117156112625761126161120b565b5b80604052505050565b6000611275610e6c565b9050611281828261123a565b919050565b600067ffffffffffffffff8211156112a1576112a061120b565b5b6112aa82610f94565b9050602081019050919050565b82818337600083830152505050565b60006112d96112d484611286565b61126b565b9050828152602081018484840111156112f5576112f4611206565b5b6113008482856112b7565b509392505050565b600082601f83011261131d5761131c611201565b5b813561132d8482602086016112c6565b91505092915050565b600067ffffffffffffffff8211156113515761135061120b565b5b602082029050602081019050919050565b600080fd5b600061137a61137584611336565b61126b565b9050808382526020820190506020840283018581111561139d5761139c611362565b5b835b818110156113c657806113b28882610ec9565b84526020840193505060208101905061139f565b5050509392505050565b600082601f8301126113e5576113e4611201565b5b81356113f5848260208601611367565b91505092915050565b60008060006060848603121561141757611416610e76565b5b600061142586828701610ec9565b935050602084013567ffffffffffffffff81111561144657611445610e7b565b5b61145286828701611308565b925050604084013567ffffffffffffffff81111561147357611472610e7b565b5b61147f868287016113d0565b9150509250925092565b7f4e6f7420617574686f72697a656420686f73706974616c000000000000000000600082015250565b60006114bf601783610f59565b91506114ca82611489565b602082019050919050565b600060208201905081810360008301526114ee816114b2565b9050919050565b7f50617469656e74206e6f74207265676973746572656400000000000000000000600082015250565b600061152b601683610f59565b9150611536826114f5565b602082019050919050565b6000602082019050818103600083015261155a8161151e565b9050919050565b7f4e487b7100000000000000000000000000000000000000000000000000000000600052601160045260246000fd5b600061159b82610f0b565b91507fffffffffffffffffffffffffffffffffffffffffffffffffffffffffffffffff82036115cd576115cc611561565b5b600182019050919050565b7f4e487b7100000000000000000000000000000000000000000000000000000000600052602260045260246000fd5b6000600282049050600182168061161f57607f821691505b602082108103611632576116316115d8565b5b50919050565b60008154905061164781611607565b9050919050565b60008190508160005260206000209050919050565b60008190508160005260206000209050919050565b60006020601f8301049050919050565b600082821b905092915050565b6000600883026116c57fffffffffffffffffffffffffffffffffffffffffffffffffffffffffffffffff82611688565b6116cf8683611688565b95508019841693508086168417925050509392505050565b6000819050919050565b600061170c61170761170284610f0b565b6116e7565b610f0b565b9050919050565b6000819050919050565b611726836116f1565b61173a61173282611713565b848454611695565b825550505050565b600090565b61174f611742565b61175a81848461171d565b505050565b5b8181101561177e57611773600082611747565b600181019050611760565b5050565b601f8211156117c3576117948161164e565b61179d84611678565b810160208510156117ac578190505b6117c06117b885611678565b83018261175f565b50505b505050565b600082821c905092915050565b60006117e6600019846008026117c8565b1980831691505092915050565b60006117ff83836117d5565b9150826002028217905092915050565b81810361181d5750506118f5565b61182682611638565b67ffffffffffffffff81111561183f5761183e61120b565b5b6118498254611607565b611854828285611782565b6000601f8311600181146118835760008415611871578287015490505b61187b85826117f3565b8655506118ee565b601f19841661189187611663565b965061189c8661164e565b60005b828110156118c45784890154825560018201915060018501945060208101905061189f565b868310156118e157848901546118dd601f8916826117d5565b8355505b6001600288020188555050505b5050505050505b565b7f52657175657374206e6f7420666f756e64000000000000000000000000000000600082015250565b600061192d601183610f59565b9150611938826118f7565b602082019050919050565b6000602082019050818103600083015261195c81611920565b9050919050565b7f416c726561647920657865637574656400000000000000000000000000000000600082015250565b6000611999601083610f59565b91506119a482611963565b602082019050919050565b600060208201905081810360008301526119c88161198c565b9050919050565b7f416c726561647920617070726f76656400000000000000000000000000000000600082015250565b6000611a05601083610f59565b9150611a10826119cf565b602082019050919050565b60006020820190508181036000830152611a34816119f8565b9050919050565b7f4e487b7100000000000000000000000000000000000000000000000000000000600052603260045260246000fd5b7f4e6f74206120677561726469616e000000000000000000000000000000000000600082015250565b6000611aa0600e83610f59565b9150611aab82611a6a565b602082019050919050565b60006020820190508181036000830152611acf81611a93565b9050919050565b60008154611ae381611607565b611aed8186610f59565b94506001821660008114611b085760018114611b1e57611b51565b60ff198316865281151560200286019350611b51565b611b278561164e565b60005b83811015611b4957815481890152600182019150602081019050611b2a565b808801955050505b50505092915050565b60006020820190508181036000830152611b748184611ad6565b905092915050565b7f496e73756666696369656e7420677561726469616e7300000000000000000000600082015250565b6000611bb2601683610f59565b9150611bbd82611b7c565b602082019050919050565b60006020820190508181036000830152611be181611ba5565b9050919050565b611bf182610f4e565b67ffffffffffffffff811115611c0a57611c0961120b565b5b611c148254611607565b611c1f828285611782565b600060209050601f831160018114611c525760008415611c40578287015190505b611c4a85826117f3565b865550611cb2565b601f198416611c608661164e565b60005b82811015611c8857848901518255600182019150602085019450602081019050611c63565b86831015611ca55784890151611ca1601f8916826117d5565b8355505b6001600288020188555050505b505050505050565b60006020820190508181036000830152611cd48184610fa5565b90509291505056fea264697066735822122040e6984a13d2aee3e50ecadffd3bc33fc6c55495defd91df00a811f4543c30d364736f6c63430008130033",
  "linkReferences": {},
  "deployedLinkReferences": {}
}